{
  "abi": [
    {
      "type": "constructor",
      "inputs": [
        {
          "name": "initialOwner",
          "type": "address",
          "internalType": "address"
        }
      ],
      "stateMutability": "nonpayable"
    },
    {
      "type": "function",
      "name": "approve",
      "inputs": [
        {
          "name": "to",
          "type": "address",
          "internalType": "address"
        },
        {
          "name": "tokenId",
          "type": "uint256",
          "internalType": "uint256"
        }
      ],
      "outputs": [],
      "stateMutability": "nonpayable"
    },
    {
      "type": "function",
      "name": "balanceOf",
      "inputs": [
        {
          "name": "owner",
          "type": "address",
          "internalType": "address"
        }
      ],
      "outputs": [
        {
          "name": "",
          "type": "uint256",
          "internalType": "uint256"
        }
      ],
      "stateMutability": "view"
    },
    {
      "type": "function",
      "name": "getApproved",
      "inputs": [
        {
          "name": "tokenId",
          "type": "uint256",
          "internalType": "uint256"
        }
      ],
      "outputs": [
        {
          "name": "",
          "type": "address",
          "internalType": "address"
        }
      ],
      "stateMutability": "view"
    },
    {
      "type": "function",
      "name": "isApprovedForAll",
      "inputs": [
        {
          "name": "owner",
          "type": "address",
          "internalType": "address"
        },
        {
          "name": "operator",
          "type": "address",
          "internalType": "address"
        }
      ],
      "outputs": [
        {
          "name": "",
          "type": "bool",
          "internalType": "bool"
        }
      ],
      "stateMutability": "view"
    },
    {
      "type": "function",
      "name": "name",
      "inputs": [],
      "outputs": [
        {
          "name": "",
          "type": "string",
          "internalType": "string"
        }
      ],
      "stateMutability": "view"
    },
    {
      "type": "function",
      "name": "owner",
      "inputs": [],
      "outputs": [
        {
          "name": "",
          "type": "address",
          "internalType": "address"
        }
      ],
      "stateMutability": "view"
    },
    {
      "type": "function",
      "name": "ownerOf",
      "inputs": [
        {
          "name": "tokenId",
          "type": "uint256",
          "internalType": "uint256"
        }
      ],
      "outputs": [
        {
          "name": "",
          "type": "address",
          "internalType": "address"
        }
      ],
      "stateMutability": "view"
    },
    {
      "type": "function",
      "name": "renounceOwnership",
      "inputs": [],
      "outputs": [],
      "stateMutability": "nonpayable"
    },
    {
      "type": "function",
      "name": "safeMint",
      "inputs": [
        {
          "name": "to",
          "type": "address",
          "internalType": "address"
        },
        {
          "name": "uri",
          "type": "string",
          "internalType": "string"
        }
      ],
      "outputs": [],
      "stateMutability": "nonpayable"
    },
    {
      "type": "function",
      "name": "safeTransferFrom",
      "inputs": [
        {
          "name": "from",
          "type": "address",
          "internalType": "address"
        },
        {
          "name": "to",
          "type": "address",
          "internalType": "address"
        },
        {
          "name": "tokenId",
          "type": "uint256",
          "internalType": "uint256"
        }
      ],
      "outputs": [],
      "stateMutability": "nonpayable"
    },
    {
      "type": "function",
      "name": "safeTransferFrom",
      "inputs": [
        {
          "name": "from",
          "type": "address",
          "internalType": "address"
        },
        {
          "name": "to",
          "type": "address",
          "internalType": "address"
        },
        {
          "name": "tokenId",
          "type": "uint256",
          "internalType": "uint256"
        },
        {
          "name": "data",
          "type": "bytes",
          "internalType": "bytes"
        }
      ],
      "outputs": [],
      "stateMutability": "nonpayable"
    },
    {
      "type": "function",
      "name": "setApprovalForAll",
      "inputs": [
        {
          "name": "operator",
          "type": "address",
          "internalType": "address"
        },
        {
          "name": "approved",
          "type": "bool",
          "internalType": "bool"
        }
      ],
      "outputs": [],
      "stateMutability": "nonpayable"
    },
    {
      "type": "function",
      "name": "supportsInterface",
      "inputs": [
        {
          "name": "interfaceId",
          "type": "bytes4",
          "internalType": "bytes4"
        }
      ],
      "outputs": [
        {
          "name": "",
          "type": "bool",
          "internalType": "bool"
        }
      ],
      "stateMutability": "view"
    },
    {
      "type": "function",
      "name": "symbol",
      "inputs": [],
      "outputs": [
        {
          "name": "",
          "type": "string",
          "internalType": "string"
        }
      ],
      "stateMutability": "view"
    },
    {
      "type": "function",
      "name": "tokenByIndex",
      "inputs": [
        {
          "name": "index",
          "type": "uint256",
          "internalType": "uint256"
        }
      ],
      "outputs": [
        {
          "name": "",
          "type": "uint256",
          "internalType": "uint256"
        }
      ],
      "stateMutability": "view"
    },
    {
      "type": "function",
      "name": "tokenOfOwnerByIndex",
      "inputs": [
        {
          "name": "owner",
          "type": "address",
          "internalType": "address"
        },
        {
          "name": "index",
          "type": "uint256",
          "internalType": "uint256"
        }
      ],
      "outputs": [
        {
          "name": "",
          "type": "uint256",
          "internalType": "uint256"
        }
      ],
      "stateMutability": "view"
    },
    {
      "type": "function",
      "name": "tokenURI",
      "inputs": [
        {
          "name": "tokenId",
          "type": "uint256",
          "internalType": "uint256"
        }
      ],
      "outputs": [
        {
          "name": "",
          "type": "string",
          "internalType": "string"
        }
      ],
      "stateMutability": "view"
    },
    {
      "type": "function",
      "name": "totalSupply",
      "inputs": [],
      "outputs": [
        {
          "name": "",
          "type": "uint256",
          "internalType": "uint256"
        }
      ],
      "stateMutability": "view"
    },
    {
      "type": "function",
      "name": "transferFrom",
      "inputs": [
        {
          "name": "from",
          "type": "address",
          "internalType": "address"
        },
        {
          "name": "to",
          "type": "address",
          "internalType": "address"
        },
        {
          "name": "tokenId",
          "type": "uint256",
          "internalType": "uint256"
        }
      ],
      "outputs": [],
      "stateMutability": "nonpayable"
    },
    {
      "type": "function",
      "name": "transferOwnership",
      "inputs": [
        {
          "name": "newOwner",
          "type": "address",
          "internalType": "address"
        }
      ],
      "outputs": [],
      "stateMutability": "nonpayable"
    },
    {
      "type": "event",
      "name": "Approval",
      "inputs": [
        {
          "name": "owner",
          "type": "address",
          "indexed": true,
          "internalType": "address"
        },
        {
          "name": "approved",
          "type": "address",
          "indexed": true,
          "internalType": "address"
        },
        {
          "name": "tokenId",
          "type": "uint256",
          "indexed": true,
          "internalType": "uint256"
        }
      ],
      "anonymous": false
    },
    {
      "type": "event",
      "name": "ApprovalForAll",
      "inputs": [
        {
          "name": "owner",
          "type": "address",
          "indexed": true,
          "internalType": "address"
        },
        {
          "name": "operator",
          "type": "address",
          "indexed": true,
          "internalType": "address"
        },
        {
          "name": "approved",
          "type": "bool",
          "indexed": false,
          "internalType": "bool"
        }
      ],
      "anonymous": false
    },
    {
      "type": "event",
      "name": "BatchMetadataUpdate",
      "inputs": [
        {
          "name": "_fromTokenId",
          "type": "uint256",
          "indexed": false,
          "internalType": "uint256"
        },
        {
          "name": "_toTokenId",
          "type": "uint256",
          "indexed": false,
          "internalType": "uint256"
        }
      ],
      "anonymous": false
    },
    {
      "type": "event",
      "name": "MetadataUpdate",
      "inputs": [
        {
          "name": "_tokenId",
          "type": "uint256",
          "indexed": false,
          "internalType": "uint256"
        }
      ],
      "anonymous": false
    },
    {
      "type": "event",
      "name": "OwnershipTransferred",
      "inputs": [
        {
          "name": "previousOwner",
          "type": "address",
          "indexed": true,
          "internalType": "address"
        },
        {
          "name": "newOwner",
          "type": "address",
          "indexed": true,
          "internalType": "address"
        }
      ],
      "anonymous": false
    },
    {
      "type": "event",
      "name": "Transfer",
      "inputs": [
        {
          "name": "from",
          "type": "address",
          "indexed": true,
          "internalType": "address"
        },
        {
          "name": "to",
          "type": "address",
          "indexed": true,
          "internalType": "address"
        },
        {
          "name": "tokenId",
          "type": "uint256",
          "indexed": true,
          "internalType": "uint256"
        }
      ],
      "anonymous": false
    },
    {
      "type": "error",
      "name": "ERC721EnumerableForbiddenBatchMint",
      "inputs": []
    },
    {
      "type": "error",
      "name": "ERC721IncorrectOwner",
      "inputs": [
        {
          "name": "sender",
          "type": "address",
          "internalType": "address"
        },
        {
          "name": "tokenId",
          "type": "uint256",
          "internalType": "uint256"
        },
        {
          "name": "owner",
          "type": "address",
          "internalType": "address"
        }
      ]
    },
    {
      "type": "error",
      "name": "ERC721InsufficientApproval",
      "inputs": [
        {
          "name": "operator",
          "type": "address",
          "internalType": "address"
        },
        {
          "name": "tokenId",
          "type": "uint256",
          "internalType": "uint256"
        }
      ]
    },
    {
      "type": "error",
      "name": "ERC721InvalidApprover",
      "inputs": [
        {
          "name": "approver",
          "type": "address",
          "internalType": "address"
        }
      ]
    },
    {
      "type": "error",
      "name": "ERC721InvalidOperator",
      "inputs": [
        {
          "name": "operator",
          "type": "address",
          "internalType": "address"
        }
      ]
    },
    {
      "type": "error",
      "name": "ERC721InvalidOwner",
      "inputs": [
        {
          "name": "owner",
          "type": "address",
          "internalType": "address"
        }
      ]
    },
    {
      "type": "error",
      "name": "ERC721InvalidReceiver",
      "inputs": [
        {
          "name": "receiver",
          "type": "address",
          "internalType": "address"
        }
      ]
    },
    {
      "type": "error",
      "name": "ERC721InvalidSender",
      "inputs": [
        {
          "name": "sender",
          "type": "address",
          "internalType": "address"
        }
      ]
    },
    {
      "type": "error",
      "name": "ERC721NonexistentToken",
      "inputs": [
        {
          "name": "tokenId",
          "type": "uint256",
          "internalType": "uint256"
        }
      ]
    },
    {
      "type": "error",
      "name": "ERC721OutOfBoundsIndex",
      "inputs": [
        {
          "name": "owner",
          "type": "address",
          "internalType": "address"
        },
        {
          "name": "index",
          "type": "uint256",
          "internalType": "uint256"
        }
      ]
    },
    {
      "type": "error",
      "name": "OwnableInvalidOwner",
      "inputs": [
        {
          "name": "owner",
          "type": "address",
          "internalType": "address"
        }
      ]
    },
    {
      "type": "error",
      "name": "OwnableUnauthorizedAccount",
      "inputs": [
        {
          "name": "account",
          "type": "address",
          "internalType": "address"
        }
      ]
    }
  ],
  "bytecode": {
    "object": "0x608060405234801561001057600080fd5b50604051611ae2380380611ae283398101604081905261002f9161010b565b604080518082018252600580825264165353919560da1b60208084018290528451808601909552918452908301528291600061006b83826101dc565b50600161007882826101dc565b5050506001600160a01b0381166100a957604051631e4fbdf760e01b81526000600482015260240160405180910390fd5b6100b2816100b9565b505061029b565b600b80546001600160a01b038381166001600160a01b0319831681179093556040519116919082907f8be0079c531659141344cd1fd0a4f28419497f9722a3daafe3b4186f6b6457e090600090a35050565b60006020828403121561011d57600080fd5b81516001600160a01b038116811461013457600080fd5b9392505050565b634e487b7160e01b600052604160045260246000fd5b600181811c9082168061016557607f821691505b60208210810361018557634e487b7160e01b600052602260045260246000fd5b50919050565b601f8211156101d7576000816000526020600020601f850160051c810160208610156101b45750805b601f850160051c820191505b818110156101d3578281556001016101c0565b5050505b505050565b81516001600160401b038111156101f5576101f561013b565b610209816102038454610151565b8461018b565b602080601f83116001811461023e57600084156102265750858301515b600019600386901b1c1916600185901b1785556101d3565b600085815260208120601f198616915b8281101561026d5788860151825594840194600190910190840161024e565b508582101561028b5787850151600019600388901b60f8161c191681555b5050505050600190811b01905550565b611838806102aa6000396000f3fe608060405234801561001057600080fd5b506004361061012c5760003560e01c806370a08231116100ad578063b88d4fde11610071578063b88d4fde14610266578063c87b56dd14610279578063d204c45e1461028c578063e985e9c51461029f578063f2fde38b146102b257600080fd5b806370a082311461021f578063715018a6146102325780638da5cb5b1461023a57806395d89b411461024b578063a22cb4651461025357600080fd5b806323b872dd116100f457806323b872dd146101c05780632f745c59146101d357806342842e0e146101e65780634f6ccce7146101f95780636352211e1461020c57600080fd5b806301ffc9a71461013157806306fdde0314610159578063081812fc1461016e578063095ea7b31461019957806318160ddd146101ae575b600080fd5b61014461013f3660046112b2565b6102c5565b60405190151581526020015b60405180910390f35b6101616102d6565b604051610150919061131f565b61018161017c366004611332565b610368565b6040516001600160a01b039091168152602001610150565b6101ac6101a7366004611367565b610391565b005b6008545b604051908152602001610150565b6101ac6101ce366004611391565b6103a0565b6101b26101e1366004611367565b610430565b6101ac6101f4366004611391565b610495565b6101b2610207366004611332565b6104b5565b61018161021a366004611332565b61050e565b6101b261022d3660046113cd565b610519565b6101ac610561565b600b546001600160a01b0316610181565b610161610575565b6101ac6102613660046113e8565b610584565b6101ac6102743660046114b0565b61058f565b610161610287366004611332565b6105a6565b6101ac61029a36600461152c565b6105b1565b6101446102ad36600461158e565b6105e4565b6101ac6102c03660046113cd565b610612565b60006102d082610650565b92915050565b6060600080546102e5906115c1565b80601f0160208091040260200160405190810160405280929190818152602001828054610311906115c1565b801561035e5780601f106103335761010080835404028352916020019161035e565b820191906000526020600020905b81548152906001019060200180831161034157829003601f168201915b5050505050905090565b600061037382610675565b506000828152600460205260409020546001600160a01b03166102d0565b61039c8282336106ae565b5050565b6001600160a01b0382166103cf57604051633250574960e11b8152600060048201526024015b60405180910390fd5b60006103dc8383336106bb565b9050836001600160a01b0316816001600160a01b03161461042a576040516364283d7b60e01b81526001600160a01b03808616600483015260248201849052821660448201526064016103c6565b50505050565b600061043b83610519565b821061046c5760405163295f44f760e21b81526001600160a01b0384166004820152602481018390526044016103c6565b506001600160a01b03919091166000908152600660209081526040808320938352929052205490565b6104b08383836040518060200160405280600081525061058f565b505050565b60006104c060085490565b82106104e95760405163295f44f760e21b815260006004820152602481018390526044016103c6565b600882815481106104fc576104fc6115fb565b90600052602060002001549050919050565b60006102d082610675565b60006001600160a01b038216610545576040516322718ad960e21b8152600060048201526024016103c6565b506001600160a01b031660009081526003602052604090205490565b6105696106d0565b61057360006106fd565b565b6060600180546102e5906115c1565b61039c33838361074f565b61059a8484846103a0565b61042a848484846107ee565b60606102d082610917565b6105b96106d0565b600c8054600091826105ca83611627565b9190505590506105da8382610a2f565b6104b08183610a49565b6001600160a01b03918216600090815260056020908152604080832093909416825291909152205460ff1690565b61061a6106d0565b6001600160a01b03811661064457604051631e4fbdf760e01b8152600060048201526024016103c6565b61064d816106fd565b50565b60006001600160e01b03198216632483248360e11b14806102d057506102d082610a99565b6000818152600260205260408120546001600160a01b0316806102d057604051637e27328960e01b8152600481018490526024016103c6565b6104b08383836001610abe565b60006106c8848484610bc4565b949350505050565b600b546001600160a01b031633146105735760405163118cdaa760e01b81523360048201526024016103c6565b600b80546001600160a01b038381166001600160a01b0319831681179093556040519116919082907f8be0079c531659141344cd1fd0a4f28419497f9722a3daafe3b4186f6b6457e090600090a35050565b6001600160a01b03821661078157604051630b61174360e31b81526001600160a01b03831660048201526024016103c6565b6001600160a01b03838116600081815260056020908152604080832094871680845294825291829020805460ff191686151590811790915591519182527f17307eab39ab6107e8899845ad3d59bd9653f200f220920489ca2b5937696c31910160405180910390a3505050565b6001600160a01b0383163b1561042a57604051630a85bd0160e11b81526001600160a01b0384169063150b7a0290610830903390889087908790600401611640565b6020604051808303816000875af192505050801561086b575060408051601f3d908101601f191682019092526108689181019061167d565b60015b6108d4573d808015610899576040519150601f19603f3d011682016040523d82523d6000602084013e61089e565b606091505b5080516000036108cc57604051633250574960e11b81526001600160a01b03851660048201526024016103c6565b805181602001fd5b6001600160e01b03198116630a85bd0160e11b1461091057604051633250574960e11b81526001600160a01b03851660048201526024016103c6565b5050505050565b606061092282610675565b506000828152600a60205260408120805461093c906115c1565b80601f0160208091040260200160405190810160405280929190818152602001828054610968906115c1565b80156109b55780601f1061098a576101008083540402835291602001916109b5565b820191906000526020600020905b81548152906001019060200180831161099857829003601f168201915b5050505050905060006109e2604080518082019091526007815266697066733a2f2f60c81b602082015290565b905080516000036109f4575092915050565b815115610a26578082604051602001610a0e92919061169a565b60405160208183030381529060405292505050919050565b6106c884610c91565b61039c828260405180602001604052806000815250610d15565b6000828152600a60205260409020610a618282611719565b506040518281527ff8e1a15aba9398e019f0b49df1a4fde98ee17ae345cb5f6b5e2c27f5033e8ce79060200160405180910390a15050565b60006001600160e01b0319821663780e9d6360e01b14806102d057506102d082610d2c565b8080610ad257506001600160a01b03821615155b15610b94576000610ae284610675565b90506001600160a01b03831615801590610b0e5750826001600160a01b0316816001600160a01b031614155b8015610b215750610b1f81846105e4565b155b15610b4a5760405163a9fbf51f60e01b81526001600160a01b03841660048201526024016103c6565b8115610b925783856001600160a01b0316826001600160a01b03167f8c5be1e5ebec7d5bd14f71427d1e84f3dd0314c0f7b2291e5b200ac8c7c3b92560405160405180910390a45b505b5050600090815260046020526040902080546001600160a01b0319166001600160a01b0392909216919091179055565b600080610bd2858585610d7c565b90506001600160a01b038116610c2f57610c2a84600880546000838152600960205260408120829055600182018355919091527ff3f7a9fe364faab93b216da50a3214154f22a0a2b415b23a84c8169e8b636ee30155565b610c52565b846001600160a01b0316816001600160a01b031614610c5257610c528185610e75565b6001600160a01b038516610c6e57610c6984610f06565b6106c8565b846001600160a01b0316816001600160a01b0316146106c8576106c88585610fb5565b6060610c9c82610675565b506000610cc3604080518082019091526007815266697066733a2f2f60c81b602082015290565b90506000815111610ce35760405180602001604052806000815250610d0e565b80610ced84611005565b604051602001610cfe92919061169a565b6040516020818303038152906040525b9392505050565b610d1f8383611098565b6104b060008484846107ee565b60006001600160e01b031982166380ac58cd60e01b1480610d5d57506001600160e01b03198216635b5e139f60e01b145b806102d057506301ffc9a760e01b6001600160e01b03198316146102d0565b6000828152600260205260408120546001600160a01b0390811690831615610da957610da98184866110fd565b6001600160a01b03811615610de757610dc6600085600080610abe565b6001600160a01b038116600090815260036020526040902080546000190190555b6001600160a01b03851615610e16576001600160a01b0385166000908152600360205260409020805460010190555b60008481526002602052604080822080546001600160a01b0319166001600160a01b0389811691821790925591518793918516917fddf252ad1be2c89b69c2b068fc378daa952ba7f163c4a11628f55a4df523b3ef91a4949350505050565b6000610e8083610519565b600083815260076020526040902054909150808214610ed3576001600160a01b03841660009081526006602090815260408083208584528252808320548484528184208190558352600790915290208190555b5060009182526007602090815260408084208490556001600160a01b039094168352600681528383209183525290812055565b600854600090610f18906001906117d9565b60008381526009602052604081205460088054939450909284908110610f4057610f406115fb565b906000526020600020015490508060088381548110610f6157610f616115fb565b6000918252602080832090910192909255828152600990915260408082208490558582528120556008805480610f9957610f996117ec565b6001900381819060005260206000200160009055905550505050565b60006001610fc284610519565b610fcc91906117d9565b6001600160a01b039093166000908152600660209081526040808320868452825280832085905593825260079052919091209190915550565b6060600061101283611161565b600101905060008167ffffffffffffffff81111561103257611032611424565b6040519080825280601f01601f19166020018201604052801561105c576020820181803683370190505b5090508181016020015b600019016f181899199a1a9b1b9c1cb0b131b232b360811b600a86061a8153600a850494508461106657509392505050565b6001600160a01b0382166110c257604051633250574960e11b8152600060048201526024016103c6565b60006110d0838360006106bb565b90506001600160a01b038116156104b0576040516339e3563760e11b8152600060048201526024016103c6565b611108838383611239565b6104b0576001600160a01b03831661113657604051637e27328960e01b8152600481018290526024016103c6565b60405163177e802f60e01b81526001600160a01b0383166004820152602481018290526044016103c6565b60008072184f03e93ff9f4daa797ed6e38ed64bf6a1f0160401b83106111a05772184f03e93ff9f4daa797ed6e38ed64bf6a1f0160401b830492506040015b6d04ee2d6d415b85acef810000000083106111cc576d04ee2d6d415b85acef8100000000830492506020015b662386f26fc1000083106111ea57662386f26fc10000830492506010015b6305f5e1008310611202576305f5e100830492506008015b612710831061121657612710830492506004015b60648310611228576064830492506002015b600a83106102d05760010192915050565b60006001600160a01b038316158015906106c85750826001600160a01b0316846001600160a01b03161480611273575061127384846105e4565b806106c85750506000908152600460205260409020546001600160a01b03908116911614919050565b6001600160e01b03198116811461064d57600080fd5b6000602082840312156112c457600080fd5b8135610d0e8161129c565b60005b838110156112ea5781810151838201526020016112d2565b50506000910152565b6000815180845261130b8160208601602086016112cf565b601f01601f19169290920160200192915050565b602081526000610d0e60208301846112f3565b60006020828403121561134457600080fd5b5035919050565b80356001600160a01b038116811461136257600080fd5b919050565b6000806040838503121561137a57600080fd5b6113838361134b565b946020939093013593505050565b6000806000606084860312156113a657600080fd5b6113af8461134b565b92506113bd6020850161134b565b9150604084013590509250925092565b6000602082840312156113df57600080fd5b610d0e8261134b565b600080604083850312156113fb57600080fd5b6114048361134b565b91506020830135801515811461141957600080fd5b809150509250929050565b634e487b7160e01b600052604160045260246000fd5b600067ffffffffffffffff8084111561145557611455611424565b604051601f8501601f19908116603f0116810190828211818310171561147d5761147d611424565b8160405280935085815286868601111561149657600080fd5b858560208301376000602087830101525050509392505050565b600080600080608085870312156114c657600080fd5b6114cf8561134b565b93506114dd6020860161134b565b925060408501359150606085013567ffffffffffffffff81111561150057600080fd5b8501601f8101871361151157600080fd5b6115208782356020840161143a565b91505092959194509250565b6000806040838503121561153f57600080fd5b6115488361134b565b9150602083013567ffffffffffffffff81111561156457600080fd5b8301601f8101851361157557600080fd5b6115848582356020840161143a565b9150509250929050565b600080604083850312156115a157600080fd5b6115aa8361134b565b91506115b86020840161134b565b90509250929050565b600181811c908216806115d557607f821691505b6020821081036115f557634e487b7160e01b600052602260045260246000fd5b50919050565b634e487b7160e01b600052603260045260246000fd5b634e487b7160e01b600052601160045260246000fd5b60006001820161163957611639611611565b5060010190565b6001600160a01b0385811682528416602082015260408101839052608060608201819052600090611673908301846112f3565b9695505050505050565b60006020828403121561168f57600080fd5b8151610d0e8161129c565b600083516116ac8184602088016112cf565b8351908301906116c08183602088016112cf565b01949350505050565b601f8211156104b0576000816000526020600020601f850160051c810160208610156116f25750805b601f850160051c820191505b81811015611711578281556001016116fe565b505050505050565b815167ffffffffffffffff81111561173357611733611424565b6117478161174184546115c1565b846116c9565b602080601f83116001811461177c57600084156117645750858301515b600019600386901b1c1916600185901b178555611711565b600085815260208120601f198616915b828110156117ab5788860151825594840194600190910190840161178c565b50858210156117c95787850151600019600388901b60f8161c191681555b5050505050600190811b01905550565b818103818111156102d0576102d0611611565b634e487b7160e01b600052603160045260246000fdfea264697066735822122032afb46fb34ec6a6d66943d79c4dab1e7b8fbb894a5fd2f5321fb1feafb0c34864736f6c63430008190033",
    "linkReferences": {}
  },
  "methodIdentifiers": {
    "approve(address,uint256)": "095ea7b3",
    "balanceOf(address)": "70a08231",
    "getApproved(uint256)": "081812fc",
    "isApprovedForAll(address,address)": "e985e9c5",
    "name()": "06fdde03",
    "owner()": "8da5cb5b",
    "ownerOf(uint256)": "6352211e",
    "renounceOwnership()": "715018a6",
    "safeMint(address,string)": "d204c45e",
    "safeTransferFrom(address,address,uint256)": "42842e0e",
    "safeTransferFrom(address,address,uint256,bytes)": "b88d4fde",
    "setApprovalForAll(address,bool)": "a22cb465",
    "supportsInterface(bytes4)": "01ffc9a7",
    "symbol()": "95d89b41",
    "tokenByIndex(uint256)": "4f6ccce7",
    "tokenOfOwnerByIndex(address,uint256)": "2f745c59",
    "tokenURI(uint256)": "c87b56dd",
    "totalSupply()": "18160ddd",
    "transferFrom(address,address,uint256)": "23b872dd",
    "transferOwnership(address)": "f2fde38b"
  },
  "id": 18
}